:040800008AEF04F087
:08080800EA6A070EE96EEF50E9
:100810000EE00F0E016E006A002EFED7012EFBD7F0
:100820008F0E006E002EFED70000EF2EF2D79BEF4A
:1008300004F09294898493948A8496908D902AEF00
:1008400004F09296898696948D8496928D922BEFE1
:1008500004F0EFD7F6D769EF04F0EA6A070EE96E05
:10086000EF500EE00F0E016E006A002EFED7012E33
:10087000FBD78F0E006E002EFED70000EF2EF2D7B2
:1008800012009294898493948A9496908D9052EF5A
:1008900004F09296898696948D9496928D9253EF59
:1008A00004F0EFD7F6D712009294898493948A9437
:1008B00096908D8065EF04F09296898696948D943B
:1008C00096928D8266EF04F0EFD7F6D779EF04F0B9
:1008D000C0D7020E066EAF0E076EBFDF062EFBD727
:1008E000E0DF040E066EFA0E076EB7DF062EFBD7AA
:1008F000EBD7020E066EAF0E076EAFDF062EFBD7EC
:10090000D0DF040E066EFA0E076EA7DF062EFBD7A9
:100910009EEF04F0F86AD09EC150C00B0F09C16E63
:10092000070EB46E056A958283A209D0040E066E86
:10093000FA0E076E69D7062EFBD7CAD7052AF3D75A
:020940000300B2
:020000040030CA
:0E000000240E3F1E008181000FC00FA00F4094
:00000001FF
;PIC18F4550
;CRC=7E61  CREATED="12-jun.-19 13:12"
