:0408000029EF04F0E8
:08080800EA6A060EE96EEF50EA
:100810000EE00F0E016E006A002EFED7012EFBD7F0
:100820008F0E006E002EFED70000EF2EF2D736EFAF
:1008300004F09296898696948D8496928D9239EFE3
:1008400004F09296898696948D9496928D823DEFCF
:1008500004F0F86AD09EC150C00B0F09C16E070E9C
:10086000B46E020E056EFA0E066ECED7052EFBD7BD
:0E087000E0D7958283A201D0E4D7FAD7030027
:020000040030CA
:0E000000240E3F1E008181000FC00FA00F4094
:00000001FF
;PIC18F4550
;CRC=8351  CREATED="15-jun.-19 01:02"
