:040800006BEF04F0A6
:08080800EA6A060EE96EEF50EA
:100810000EE00F0E016E006A002EFED7012EFBD7F0
:100820008F0E006E002EFED70000EF2EF2D778EF6D
:1008300004F09296898696948D8496928D9222EFFA
:1008400004F0F7D74EEF04F0EA6A060EE96EEF50B7
:100850000EE00F0E016E006A002EFED7012EFBD7B0
:100860008F0E006E002EFED70000EF2EF2D7120082
:100870009296898696948D9496928D9241EF04F08B
:10088000F7D712009296898696948D9496928D82CF
:100890004BEF04F0F7D75AEF04F0D3D7C80E066E2B
:1008A000D3DFEEDF020E056E960E066ECDDF052E4F
:1008B000FBD7F0D7020E056EFA0E066EC5DF052EC9
:1008C000FBD7DEDF020E056EFA0E066EBDDF052ECB
:1008D000FBD782EF04F0F86AD09EC150C00B0F091D
:1008E000C16E070EB46E020E056EFA0E066E8CD740
:1008F000052EFBD7929A899A958883A803D0929A5D
:08090000898ACBD7F7D7030069
:020000040030CA
:0E000000240E3F1E008181000FC00FA00F4094
:00000001FF
;PIC18F4550
;CRC=A52F  CREATED="17-jun.-19 15:39"
