:040800007AEF04F097
:08080800EA6A060EE96EEF50EA
:100810000EE00F0E016E006A002EFED7012EFBD7F0
:100820008F0E006E002EFED70000EF2EF2D787EF5E
:1008300004F09294898493948A8496908D902AEF00
:1008400004F09296898696948D8496928D922BEFE1
:1008500004F0EFD7F6D769EF04F0EA6A050EE96E07
:10086000EF500EE00F0E016E006A002EFED7012E33
:10087000FBD78F0E006E002EFED70000EF2EF2D7B2
:10088000120092928982959E8C9E959C8C9C52EF30
:1008900004F09290898094948B94959A8C9A53EF5B
:1008A00004F0EFD7F6D712009294898493948A9437
:1008B00096908D8065EF04F09296898696948D943B
:1008C00096928D8266EF04F0EFD7F6D771EF04F0C1
:1008D000C0D7640E056EC1DFE4DF640E056EBDDFB8
:1008E000F3D7C80E056EB9DFDCDF640E056EB5DF29
:1008F0008DEF04F0F86AD09EC150C00B0F09C16E95
:10090000070EB46E020E056EFA0E066E7DD7052E2A
:0E091000FBD7958283A201D0DBD7FBD7030073
:020000040030CA
:0E000000240E3F1E008181000FC00FA00F4094
:00000001FF
;PIC18F4550
;CRC=2F95  CREATED="12-jun.-19 19:05"
