:0408000047EF04F0CA
:0808080092928982959E8C9E5C
:10081000959C8C8C12009290898094948B94959ADC
:100820008C9A120092928982959E8C9E959C8C9CAB
:1008300059EF04F0EA6A050EE96EEF500EE00F0E74
:10084000016E006A002EFED7012EFBD78F0E006EC0
:10085000002EFED70000EF2EF2D75DEF04F092924B
:100860008982959E8C8E959C8C9C5EEF04F0929074
:10087000898094948B84959A8C9A5FEF04F092907F
:10088000898094948B94959A8C8A62EF04F0F86A2C
:10089000D09EC150C00B0F09C16E070EB46E95807B
:1008A00083B003D0B1DFB7DF0DD0958283A208D02B
:1008B000B9D7B1DF320E056EBDD7D1D7D8D702D0A8
:0808C000A3DFDDD7ECD7030034
:020000040030CA
:0E000000240E3F1E008181000FC00FA00F4094
:00000001FF
;PIC18F4550
;CRC=135F  CREATED="13-may.-19 16:49"
