:04080000C2EF04F04F
:08080800046ED8CF05F0E0CF2B
:1008100006F00001E9CF0CF0EACF07F0E1CF08F0D5
:10082000E2CF09F0D9CF0AF0DACF0BF0F3CF12F014
:10083000F4CF13F0FACF14F000C00EF001C00FF0A7
:1008400002C010F003C011F0F2AA2AEF04F0F2B4D3
:100850008AEF04F00EC000F00FC001F010C002F0EB
:1008600011C003F00CC0E9FF07C0EAFF078E08C003
:10087000E1FF09C0E2FF0AC0D9FF0BC0DAFF12C0D6
:10088000F3FF13C0F4FF14C0FAFF045006C0E0FFEA
:1008900005C0D8FF100092928982959E8C9E959CEF
:1008A0008C9C12009290898094948B94959A8C9A47
:1008B0001200F1DFF7DF120092928982959E8C8EF2
:1008C000959C8C9C12009290898094948B84959A2C
:1008D0008C9A1200F1DFF7DF9DEF04F0DCDFF3DF2D
:1008E0009DEF04F0E9DFDEDF9DEF04F09292898254
:1008F000959E8C9E959C8C8C87EF04F092908980BD
:1009000094948B94959A8C8A88EF04F0EFD7F6D75D
:100910009DEF04F0182A1850175C10E31650FB0FD7
:100920000CE2050FAAEF04F0C4DF07D0D3D705D03F
:10093000D5D703D0D7D701D0E9D701D0BADF185225
:1009400006E1193C01D003D01906195200E1F294D6
:100950002AEF04F0E824F76AF7366F0FF66E090EF7
:10096000F7220A00F550FA6E0800F550F96E2809D2
:100970002C09380934093009C00ED56EF28AF212FA
:10098000DDEF04F0F86AD09E078EB886E10EAF6EF8
:10099000040EB06EA60EAC6E900EAB6E010E166E0F
:1009A0005A0E176E186A0C0E196E1A6AC150C00BD7
:1009B0000F09C16E070EB46EDFD71A6A010E166EEC
:1009C000958083B005D0929A898A040E166E13D052
:1009D000958283B20CD0929A898AC80E1B6E1B3CFA
:1009E00001D004D01B06020E166EF9D704D0929ADD
:0A09F000899A010E166EE4D7030089
:020000040030CA
:0E000000240E3F1E008181000FC00FA00F4094
:00000001FF
;PIC18F4550
;CRC=6340  CREATED="13-may.-19 18:33"
