:040800002DEF04F0E4
:08080800EA6A060EE96EEF50EA
:100810000EE00F0E016E006A002EFED7012EFBD7F0
:100820008F0E006E002EFED70000EF2EF2D73CEFA9
:1008300004F092928982959E8C9E959C8C8C2AEFD6
:1008400004F09290898094948B84959A8C9A2BEFE3
:1008500004F0EFD7F6D741EF04F0F86AD09EC1500C
:10086000C00B0F09C16E070EB46E929A898A0C0EE6
:10087000056EFA0E066EC8D7052EFBD7929A899A96
:06088000E8D7FFD70300DA
:020000040030CA
:0E000000240E3F1E008181000FC00FA00F4094
:00000001FF
;PIC18F4550
;CRC=BFAA  CREATED="18-jun.-19 13:23"
