:040800007AEF05F096
:08080800EA6A060EE96EEF50EA
:100810000EE00F0E016E006A002EFED7012EFBD7F0
:100820008F0E006E002EFED70000EF2EF2D71200C2
:1008300092928982959E8C9E959C8C8C29EF04F0D7
:100840009290898094948B94959A8C8A2AEF04F0E4
:10085000EFD7F6D78AEF05F0EA6A060EE96EEF5099
:100860000EE00F0E016E006A002EFED7012EFBD7A0
:100870008F0E006E002EFED70000EF2EF2D768EF2D
:1008800005F0080E016E00008A92939200000A366D
:100890008A90D8B09380D8A09390938281A2FED7FB
:1008A000012EF1D700008A929392000093800000FD
:1008B0000000938281A2FED7016A000081B001800E
:1008C0008A9293928A9093901200EA6A0A0EE96ED5
:1008D000EF500EE00F0E016E006A002EFED7012EC3
:1008E000FBD78F0E006E002EFED70000EF2EF2D742
:1008F000DFEF04F0080E0B6E00C00CF093800000D8
:10090000938281A2FED781B0D88081A0D890013691
:10091000000093928A920B2EF1D7938000008A9068
:100920000C50D8A493900000938281A2FED70000BF
:100930008A92939200008A90939012009380110EF5
:10094000006E002EFED79382110E006E002EFED791
:100950008A909390110E006E002EFED78A92939289
:10096000C70E006E002EFED700D0E00E0A6E89DFA3
:10097000C70E006E002EFED700D00A6A82DFC70EB7
:10098000006E002EFED700D0510E0A6E7ADFC70E21
:10099000006E002EFED700D093900000938281A2BB
:1009A000FED7110E006E002EFED700D000009380FF
:1009B000110E006E002EFED7500E0A6E86D7938061
:1009C000110E006E002EFED79382110E006E002EC7
:1009D000FED78A909390110E006E002EFED78A9259
:1009E0009392C70E006E002EFED700D0E00E0A6E66
:1009F00048DFC70E006E002EFED700D0020E0A6E32
:100A000040DFC70E006E002EFED700D09380110E7F
:100A1000006E002EFED79382110E006E002EFED7C0
:100A200081A2FED78A909390110E006E002EFED701
:100A30008A929392C70E006E002EFED700D0E10E70
:100A40000A6E1FDFC70E006E002EFED700D0010E0B
:100A5000006E50DF076A01C006F0C70E006E002E60
:100A6000FED700D0006A46DF096A01C008F0C70E51
:100A7000006E002EFED700D093900000938281A2DA
:100A8000FED7110E006E002EFED700D0000093801E
:100A9000110E006E002EFED706C00BF00A6A0A5037
:100AA0000810066E0B500910076E06C001F007C053
:100AB00002F069EF05F0000E926E130E936E000EB9
:100AC000946E1F0E956E000E966E010E066EC4D6C5
:100AD00035D702C007F001C006F0075207E1055004
:100AE000065C04E2010E016E03D002D0000E016E1E
:100AF0008FEF05F0F86AD09EC150C00B0F09C16E90
:100B0000070EB46E0C0E056EFA0E066E7DDE052E17
:100B1000FBD79ED6929A899A1E0E056ECCD70152AB
:100B20000AE0929A898A020E056EFA0E066E6CDE53
:100B3000052EFBD702D0929A899A020E056EFA0E04
:0C0B4000066E62DE052EFBD7E7D703002F
:020000040030CA
:0E000000240E3F1E008181000FC00FA00F4094
:00000001FF
;PIC18F4550
;CRC=04A3  CREATED="13-jun.-19 18:56"
