:0408000032EF05F0DE
:080808008E0E006E0CC001F021
:100810000BC002F0036A015209E102C001F0026A52
:10082000080E005E015202E1006A08D0D89001BEB5
:1008300004D0023601360006F9D7019E02EF05F01A
:100840000B50D8B4A5D0176E0F50D8B4A1D0175EF6
:1008500005E37F0E1726D8B09BD006D0810E175E19
:10086000D8A096D0D8B494D017C000F0016A026A1C
:10087000036A166A0CC015F0158E0DC014F00EC078
:1008800013F0190E176E1250135E0DE2010E145E76
:100890000AE2155E08E2165E06E2162A152A142AF6
:1008A0001250132628D01150145E12E2010E155E6C
:1008B0000FE2165E0DE2162A152A11501426125068
:1008C000132619E3142A17E1152A15E1162A13D065
:1008D00010508009155E0EE2010E165E0BE2162A1C
:1008E00010508009152611501426E9E3152AE7E176
:1008F000162AE5D70380172E01D00BD0D8901336D7
:10090000143615361636D8900336023601361836A8
:10091000BAD718A006D0D89001320232033218326A
:1009200002D0000635E018BE1ED0D890133614361B
:10093000153616361250135E07E2010E145E04E2FD
:10094000155E02E2165E1AE31150145E05E2010E16
:10095000155E02E2165E12E310508009155E03E296
:10096000010E165E0BE3032A09E1022A07E1012AC0
:1009700005E1002A0DE00132023203320CC017F00B
:100980001050171A17AE02D0018E06D0019E04D067
:10099000006A016A026A036A11EF05F08E0E006EAA
:1009A0000B50005E0CC002F00DC001F0028E005230
:1009B00009E0D890025202E1015204E00232013211
:1009C000002EF7D70CAE05D0011E021E012AD8B4A6
:1009D000022A1AEF05F092988988270E006E002EE1
:1009E000FED700D092988998CF6ACE6AFFD7CE50B2
:1009F000096ECFCF0AF0929A898A0AC00CF009C01A
:100A00000BF002D703C00EF002C00DF001C00CF0D5
:100A100000C00BF0126A116A6A0E106E850E0F6E1E
:100A20000FD703C00EF002C00DF001C00CF000C0E3
:100A30000BF0B4D7025045EF05F0EA6A0A0EE96EF2
:100A4000EF500EE00F0E016E006A002EFED7012E51
:100A5000FBD78F0E006E002EFED70000EF2EF2D7D0
:100A60004EEF05F0F86AD09E046AC150C00B0F0922
:100A7000C16E070EB46EB50ECD6E92988998270E92
:100A8000006E002EFED700D0A6D702C008F001C02D
:100A900007F0020E096EFA0E0A6ECFD7092EFBD7A9
:040AA000F3D7030085
:020000040030CA
:0E000000240E3F1E008181000FC00FA00F4094
:00000001FF
;PIC18F4550
;CRC=D59B  CREATED="31-may.-19 18:13"
