:04080000D9EF04F038
:08080800046ED8CF05F0E0CF2B
:1008100006F00001E9CF0CF0EACF07F0E1CF08F0D5
:10082000E2CF09F0D9CF0AF0DACF0BF0F3CF12F014
:10083000F4CF13F0FACF14F000C00EF001C00FF0A7
:1008400002C010F003C011F09DA02AEF04F09EB08A
:1008500051EF04F0A0A030EF04F0A1B059EF04F084
:100860000EC000F00FC001F010C002F011C003F084
:100870000CC0E9FF07C0EAFF078E08C0E1FF09C00E
:10088000E2FF0AC0D9FF0BC0DAFF12C0F3FF13C0AA
:10089000F4FF14C0FAFF045006C0E0FF05C0D8FF03
:1008A0001000A0909D9018681768166A9E9030EF0F
:1008B00004F0165209E1CF6ACE6A162A9D8094820E
:1008C000BA6A040EBA6E07D0BCCF18F0BBCF17F0CF
:1008D000166AA0909D90A19030EF04F0EA6A190E7C
:1008E000E96EEF500EE00F0E016E006A002EFED78B
:1008F000012EFBD78F0E006E002EFED70000EF2ECC
:10090000F2D7ECEF04F09482BA6A050EBA6EA080BA
:10091000B50ECD6E186A176A175203E1185201E13D
:10092000FBD7EFEF04F094988B98080E016E00D07F
:100930000000018E0ED0019E1B32D8B08B88D8A04B
:100940008B98018C06D0019C012EF6D700D00000B8
:100950008B88010E006EE96AE92EFED7002EFBD7C8
:10096000990EE96EE92EFED7000001BEE4D701BC66
:10097000EAD712001ABE0FD00F0E006E19380016FB
:100980000A0E005C03E2300E002602D01A50002648
:1009900000C01BF0C8DF0F0E19160A0E195C02E228
:1009A000300E02D01A9E1A50192619C01BF0BBDF58
:1009B0001200F86AD09E078E94988B88166AC150F0
:1009C000C00B0F09C16E070EB46EC00EF2129298E2
:1009D00089880F0E196E82D79298899894D718C07B
:1009E00019F0370E1A6EC6DF17C019F0370E1A6EDF
:0609F000C1DFEDD703009A
:020000040030CA
:0E000000240E3F1E008181000FC00FA00F4094
:00000001FF
;PIC18F4550
;CRC=54E1  CREATED="17-may.-19 16:43"
