:040800006EEF04F0A3
:08080800046ED8CF05F0E0CF2B
:1008100006F00001E9CF0CF0EACF07F0E1CF08F0D5
:10082000E2CF09F0D9CF0AF0DACF0BF0F3CF12F014
:10083000F4CF13F0FACF14F000C00EF001C00FF0A7
:1008400002C010F003C011F0A0A02AEF04F0A1B084
:100850004BEF04F00EC000F00FC001F010C002F02A
:1008600011C003F00CC0E9FF07C0EAFF078E08C003
:10087000E1FF09C0E2FF0AC0D9FF0BC0DAFF12C0D6
:10088000F3FF13C0F4FF14C0FAFF045006C0E0FFEA
:1008900005C0D8FF1000929A898AA1902AEF04F02F
:1008A000EA6A190EE96EEF500EE00F0E016E006A53
:1008B000002EFED7012EFBD78F0E006E002EFED726
:1008C0000000EF2EF2D785EF04F09482BA6A050E8D
:1008D000BA6EA080CF6ACE6A88EF04F0F86AD09E24
:1008E000078E94988B88166AC150C00B0F09C16E91
:1008F000070EB46EC00EF212B50ECD6E92988998A6
:10090000929889880A0E196ECBD792988998DDD76C
:04091000F5D7030014
:020000040030CA
:0E000000240E3F1E008181000FC00FA00F4094
:00000001FF
;PIC18F4550
;CRC=8830  CREATED="17-may.-19 16:55"
