:040800004DEF07F0C1
:08080800EA6A060EE96EEF50EA
:100810000EE00F0E016E006A002EFED7012EFBD7F0
:100820008F0E006E002EFED70000EF2EF2D71200C2
:1008300092928982959E8C9E959C8C8C29EF04F0D7
:100840009290898094948B84959A8C9A2AEF04F0E4
:10085000EFD7F6D71200080E016E00008A9293922D
:1008600000000A368A90D8B09380D8A093909382E3
:1008700081A2FED7012EF1D700008A929392000048
:10088000938000000000938281A2FED7016A0000DD
:1008900081B001808A9293928A9093901200EA6AC2
:1008A0000A0EE96EEF500EE00F0E016E006A002E88
:1008B000FED7012EFBD78F0E006E002EFED7000054
:1008C000EF2EF2D71200080E0B6E00C00CF09380D2
:1008D0000000938281A2FED781B0D88081A0D890F9
:1008E0000136000093928A920B2EF1D7938000007C
:1008F0008A900C50D8A493900000938281A2FED7D6
:1009000000008A92939200008A9093901200938044
:10091000110E006E002EFED79382110E006E002E77
:10092000FED78A909390110E006E002EFED78A9209
:100930009392C70E006E002EFED700D0E00E0A6E16
:100940008ADFC70E006E002EFED700D00A6A83DF52
:10095000C70E006E002EFED700D0510E0A6E7BDF50
:10096000C70E006E002EFED700D093900000938239
:1009700081A2FED7110E006E002EFED700D000001F
:100980009380110E006E002EFED7500E0A6E87DF88
:100990009380110E006E002EFED79382110E006E12
:1009A000002EFED78A909390110E006E002EFED777
:1009B0008A929392C70E006E002EFED700D0E00EF2
:1009C0000A6E49DFC70E006E002EFED700D0020E61
:1009D0000A6E41DFC70E006E002EFED700D0938056
:1009E000110E006E002EFED79382110E006E002EA7
:1009F000FED781A2FED78A909390110E006E002E32
:100A0000FED78A929392C70E006E002EFED700D0BA
:100A1000E10E0A6E20DFC70E006E002EFED700D05A
:100A2000010E006E50DF076A01C006F0C70E006EAF
:100A3000002EFED700D0006A46DF096A01C008F028
:100A4000C70E006E002EFED700D093900000938258
:100A500081A2FED7110E006E002EFED700D000003E
:100A60009380110E006E002EFED706C00BF00A6AAE
:100A70000A500810066E0B500910076E06C001F0F0
:100A800007C002F045EF05F042D702C007F001C0F1
:100A900006F0075207E10550065C04E2010E016E04
:100AA00003D002D0000E016E120092928982959EB0
:100AB0008C9E959C8C9C66EF05F092908980949416
:100AC0008B94959A8C9A67EF05F0EFD7F6D767EF7E
:100AD00007F09296898696948D8496928D9272EF05
:100AE00005F0F7D79EEF05F0EA6A050EE96EEF50C4
:100AF0000EE00F0E016E006A002EFED7012EFBD70E
:100B00008F0E006E002EFED70000EF2EF2D71200DF
:100B10009296898696948D9496928D9291EF05F097
:100B2000F7D712009296898696948D9496928D822C
:100B30009BEF05F0F7D7A6EF05F0D3D7320E056E81
:100B4000D3DFEEDF320E056ECFDFF4D7320E056E47
:100B5000CBDFE6DF320E056EC7DF75EF07F093805F
:100B6000110E006E002EFED79382110E006E002E25
:100B7000FED78A909390110E006E002EFED78A92B7
:100B80009392C70E006E002EFED700D0E40E0A6EC0
:100B900062DEC70E006E002EFED700D00A6A5BDE52
:100BA000C70E006E002EFED700D0510E0A6E53DE27
:100BB000C70E006E002EFED700D0939000009382E7
:100BC00081A2FED7110E006E002EFED700D00000CD
:100BD0009380110E006E002EFED7500E0A6E5FDE5F
:100BE0009380110E006E002EFED79382110E006EC0
:100BF000002EFED78A909390110E006E002EFED725
:100C00008A929392C70E006E002EFED700D0E40E9B
:100C10000A6E21DEC70E006E002EFED700D0020E37
:100C20000A6E19DEC70E006E002EFED700D093802C
:100C3000110E006E002EFED79382110E006E002E54
:100C4000FED781A2FED78A909390110E006E002EDF
:100C5000FED78A929392C70E006E002EFED700D068
:100C6000E50E0A6EF8DDC70E006E002EFED700D02E
:100C7000010E006E28DE076A01C006F0C70E006E86
:100C8000002EFED700D0006A1EDE096A01C008F0FF
:100C9000C70E006E002EFED700D093900000938206
:100CA00081A2FED7110E006E002EFED700D00000EC
:100CB0009380110E006E002EFED706C00BF00A6A5C
:100CC0000A500810066E0B500910076E06C001F09E
:100CD00007C002F06DEF06F042D702C007F001C076
:100CE00006F0075207E10550065C04E2010E016EB2
:100CF00003D002D0000E016E7AEF07F09380110E40
:100D0000006E002EFED79382110E006E002EFED7CD
:100D10008A909390110E006E002EFED78A929392C5
:100D2000C70E006E002EFED700D0E20E0A6E93DDD5
:100D3000C70E006E002EFED700D00A6A8CDDC70EEB
:100D4000006E002EFED700D0510E0A6E84DDC70E55
:100D5000006E002EFED700D093900000938281A2F7
:100D6000FED7110E006E002EFED700D0000093803B
:100D7000110E006E002EFED7500E0A6E90DD93808D
:100D8000110E006E002EFED79382110E006E002E03
:100D9000FED78A909390110E006E002EFED78A9295
:100DA0009392C70E006E002EFED700D0E20E0A6EA0
:100DB00052DDC70E006E002EFED700D0020E0A6E66
:100DC0004ADDC70E006E002EFED700D09380110EB4
:100DD000006E002EFED79382110E006E002EFED7FD
:100DE00081A2FED78A909390110E006E002EFED73E
:100DF0008A929392C70E006E002EFED700D0E30EAB
:100E00000A6E29DDC70E006E002EFED700D0010E3F
:100E1000006E59DD076A01C006F0C70E006E002E95
:100E2000FED700D0006A4FDD096A01C008F0C70E86
:100E3000006E002EFED700D093900000938281A216
:100E4000FED7110E006E002EFED700D0000093805A
:100E5000110E006E002EFED706C00BF00A6A0A5073
:100E60000810066E0B500910076E06C001F007C08F
:100E700002F03CEF07F042D702C007F001C006F0D5
:100E8000075207E10550065C04E2010E016E03D033
:100E900002D0000E016E83EF07F0F86AD09EC150B9
:100EA000C00B0F09C16E070EB46E929A898A0C0EA0
:100EB000056EFA0E066EA8DC052EFBD7C9DC929AE9
:100EC000899A640E056EE0DD015209E0FED5080E38
:100ED000056EFA0E066E98DC052EFBD71BD0FA0EB7
:100EE000056ED2DD015203E028D6B2DC13D01E0E0F
:100EF000056EF2D6015204E0929A898AA9DC0AD0E2
:100F00001E0E056EB8D7015204E0929A898AA0DCC1
:080F100001D09EDCD6D70300DE
:020000040030CA
:0E000000240E3F1E008181000FC00FA00F4094
:00000001FF
;PIC18F4550
;CRC=43A5  CREATED="17-jun.-19 19:10"
