:0408000025EF07F0E9
:08080800EA6A060EE96EEF50EA
:100810000EE00F0E016E006A002EFED7012EFBD7F0
:100820008F0E006E002EFED70000EF2EF2D71200C2
:1008300092928982959E8C9E959C8C8C29EF04F0D7
:100840009290898094948B84959A8C9A2AEF04F0E4
:10085000EFD7F6D71200EA6A060EE96EEF500EE007
:100860000F0E016E006A002EFED7012EFBD78F0EF1
:10087000006E002EFED70000EF2EF2D71200080EF9
:10088000016E00008A92939200000A368A90D8B0D6
:100890009380D8A09390938281A2FED7012EF1D7A6
:1008A00000008A92939200009380000000009382DF
:1008B00081A2FED7016A000081B001808A929392E2
:1008C0008A9093901200EA6A0A0EE96EEF500EE0E9
:1008D0000F0E016E006A002EFED7012EFBD78F0E81
:1008E000006E002EFED70000EF2EF2D71200080E89
:1008F0000B6E00C00CF093800000938281A2FED7A3
:1009000081B0D88081A0D8900136000093928A925D
:100910000B2EF1D7938000008A900C50D8A49390AE
:100920000000938281A2FED700008A929392000079
:100930008A90939012009380110E006E002EFED7C5
:100940009382110E006E002EFED78A909390110EA6
:10095000006E002EFED78A929392C70E006E002E74
:10096000FED700D0E40E0A6E8ADFC70E006E002E9E
:10097000FED700D00A6A83DFC70E006E002EFED7B6
:1009800000D0510E0A6E7BDFC70E006E002EFED720
:1009900000D093900000938281A2FED7110E006ECA
:1009A000002EFED700D000009380110E006E002EA6
:1009B000FED7500E0A6E87DF9380110E006E002E58
:1009C000FED79382110E006E002EFED78A90939070
:1009D000110E006E002EFED78A929392C70E006E03
:1009E000002EFED700D0E40E0A6E49DFC70E006E5F
:1009F000002EFED700D0020E0A6E41DFC70E006E39
:100A0000002EFED700D09380110E006E002EFED770
:100A10009382110E006E002EFED781A2FED78A901F
:100A20009390110E006E002EFED78A929392C70EFD
:100A3000006E002EFED700D0E50E0A6E20DFC70E36
:100A4000006E002EFED700D0010E006E50DF076A48
:100A500001C006F0C70E006E002EFED700D0006A5F
:100A600046DF096A01C008F0C70E006E002EFED7EF
:100A700000D093900000938281A2FED7110E006EE9
:100A8000002EFED700D000009380110E006E002EC5
:100A9000FED706C00BF00A6A0A500810066E0B500B
:100AA0000910076E06C001F007C002F05CEF05F008
:100AB000010E066ED0DE3FD702C007F001C006F07F
:100AC000075207E10550065C04E2010E016E03D0F7
:100AD00002D0000E016E3CEF07F09380110E006E05
:100AE000002EFED79382110E006E002EFED78A9044
:100AF0009390110E006E002EFED78A929392C70E2D
:100B0000006E002EFED700D0E00E0A6EB8DEC70ED3
:100B1000006E002EFED700D00A6AB1DEC70E006E4E
:100B2000002EFED700D0510E0A6EA9DEC70E006E51
:100B3000002EFED700D093900000938281A2FED7B2
:100B4000110E006E002EFED700D000009380110E13
:100B5000006E002EFED7500E0A6EB5DE9380110E89
:100B6000006E002EFED79382110E006E002EFED76F
:100B70008A909390110E006E002EFED78A92939267
:100B8000C70E006E002EFED700D0E00E0A6E77DE94
:100B9000C70E006E002EFED700D0020E0A6E6FDE6A
:100BA000C70E006E002EFED700D09380110E006E8F
:100BB000002EFED79382110E006E002EFED781A26A
:100BC000FED78A909390110E006E002EFED78A9267
:100BD0009392C70E006E002EFED700D0E10E0A6E73
:100BE0004EDEC70E006E002EFED700D0010E006E46
:100BF0007EDE076A01C006F0C70E006E002EFED72B
:100C000000D0006A74DE096A01C008F0C70E006EE9
:100C1000002EFED700D093900000938281A2FED7D1
:100C2000110E006E002EFED700D000009380110E32
:100C3000006E002EFED706C00BF00A6A0A5008109C
:100C4000066E0B500910076E06C001F007C002F0D7
:100C50002EEF06F0010E066EFEDD3FD702C007F054
:100C600001C006F0075207E10550065C04E2010EE0
:100C7000016E03D002D0000E016E44EF07F0929295
:100C80008982959E8C9E959C8C9C50EF06F092904C
:100C9000898094948B94959A8C9A51EF06F0EFD7B3
:100CA000F6D747EF07F09380110E006E002EFED7A7
:100CB0009382110E006E002EFED78A909390110E33
:100CC000006E002EFED78A929392C70E006E002E01
:100CD000FED700D0E20E0A6ED2DDC70E006E002EE7
:100CE000FED700D00A6ACBDDC70E006E002EFED7FD
:100CF00000D0510E0A6EC3DDC70E006E002EFED767
:100D000000D093900000938281A2FED7110E006E56
:100D1000002EFED700D000009380110E006E002E32
:100D2000FED7500E0A6ECFDD9380110E006E002E9E
:100D3000FED79382110E006E002EFED78A909390FC
:100D4000110E006E002EFED78A929392C70E006E8F
:100D5000002EFED700D0E20E0A6E91DDC70E006EA7
:100D6000002EFED700D0020E0A6E89DDC70E006E7F
:100D7000002EFED700D09380110E006E002EFED7FD
:100D80009382110E006E002EFED781A2FED78A90AC
:100D90009390110E006E002EFED78A929392C70E8A
:100DA000006E002EFED700D0E30E0A6E68DDC70E7F
:100DB000006E002EFED700D0010E006E98DD076A8F
:100DC00001C006F0C70E006E002EFED700D0006AEC
:100DD0008EDD096A01C008F0C70E006E002EFED736
:100DE00000D093900000938281A2FED7110E006E76
:100DF000002EFED700D000009380110E006E002E52
:100E0000FED706C00BF00A6A0A500810066E0B5097
:100E10000910076E06C001F007C002F014EF07F0DA
:100E2000010E066E18DD3FD702C007F001C006F0C4
:100E3000075207E10550065C04E2010E016E03D083
:100E400002D0000E016E52EF07F0F86AD09EC1503A
:100E5000C00B0F09C16E070EB46E929A898A0C0EF0
:100E6000056EFA0E066ED0DC052EFBD7F1DC929AE9
:100E7000899A1E0E056E1CD6015203E0929A898A49
:100E800017D01E0E056EE6D6015209E008D7040EF3
:100E9000056EFA0E066EB8DC052EFBD709D01E0EC5
:100EA000056EBED7015203E0929A898A01D0D0DC48
:040EB000E0D7030084
:020000040030CA
:0E000000240E3F1E008181000FC00FA00F4094
:00000001FF
;PIC18F4550
;CRC=2AFA  CREATED="16-jun.-19 22:52"
