:0408000032EF04F0DF
:0808080092928982959E8C9E5C
:10081000959C8C8C12009290898094948B94959ADC
:100820008C8A3FEF04F09294898493948A84969002
:100830008D9012009296898696948D8496928D92D0
:1008400041EF04F09290898094948B84959A8C9ACD
:1008500044EF04F09296898696948D9496928D82B8
:1008600046EF04F0F86AD09EC150C00B0F09C16E6C
:10087000070EB46E958083B005D0C6DFCCD7D3DF2A
:10088000D9D704D0C1DFDED7CEDFE4D7F3D703005A
:020000040030CA
:0E000000240E3F1E008181000FC00FA00F4094
:00000001FF
;PIC18F4550
;CRC=4187  CREATED="08-abr.-19 19:11"
