:040800009BEF04F076
:08080800EA6A060EE96EEF50EA
:100810000EE00F0E016E006A002EFED7012EFBD7F0
:100820008F0E006E002EFED70000EF2EF2D71200C2
:1008300092928982959E8C8E959C8C9C29EF04F0D7
:100840009290898094948B84959A8C9A2AEF04F0E4
:10085000EFD7F6D7ABEF04F092928982959E8C9EEB
:10086000959C8C9C12009290898094948B94959A7C
:100870008C9A1200F1DFF7DF1200EA6A080EE96EC7
:10088000EF500EE00F0E016E006A002EFED7012E13
:10089000FBD78F0E006E002EFED70000EF2EF2D792
:1008A00012009290898094948B94959A8C8A12006D
:1008B000E1DF020E076EC80E086EDFDF072EFBD7E2
:1008C000CBDFEFDF06C007F0072A0706D8B403D056
:1008D0000868D3DFFAD705C008F0CFDFCBDFFA0E08
:1008E000086ECBDFBBEF04F092928982959E8C9EBE
:1008F000959C8C8C1200BEDF020E076EC80E086E2F
:10090000BCDF072EFBD7F0DFAEDF06C007F0072AFB
:100910000706D8B403D00868B0DFFAD705C008F0DE
:10092000ACDFA8DFFA0E086EA8DFC0EF04F0DCDF52
:10093000B8DFC1EF04F0F86AD09EC150C00B0F09B8
:10094000C16E070EB46E0C0E056EFA0E066E5CDFFD
:10095000052EFBD77DD7020E056EFA0E066E54DF0C
:10096000052EFBD7929A898A929A899A020E066E70
:10097000580E056E9DD7020E066E580E056EBBD73B
:10098000D6D7020E056EFA0E066E3EDF052EFBD799
:04099000E1D70300A8
:020000040030CA
:0E000000240E3F1E008181000FC00FA00F4094
:00000001FF
;PIC18F4550
;CRC=C49E  CREATED="12-jun.-19 12:39"
