:040800009BEF04F076
:08080800EA6A060EE96EEF50EA
:100810000EE00F0E016E006A002EFED7012EFBD7F0
:100820008F0E006E002EFED70000EF2EF2D71200C2
:1008300092928982959E8C9E959C8C9C29EF04F0C7
:100840009290898094948B94959A8C9A2AEF04F0D4
:10085000EFD7F6D7120092928982959E8C9E959C36
:100860008C8C12009290898094948B94959A8C8AA7
:100870001200F1DFF7DFB3EF04F0EA6A080EE96E69
:10088000EF500EE00F0E016E006A002EFED7012E13
:10089000FBD78F0E006E002EFED70000EF2EF2D792
:1008A0001200D6DF020E076EC80E086EE6DF072EB6
:1008B000FBD7D1DFD7DF06C007F0072A0706D8B479
:1008C00003D00868DADFFAD705C008F0D6DFC0DF4A
:1008D000FA0E086ED2DFC7EF04F092928982959EDD
:1008E0008C8E959C8C9C12009290898094948B8421
:1008F000959A8C9A1200ACDF020E076EC80E086E35
:10090000BCDF072EFBD7E9DFEFDF06C007F0072AC1
:100910000706D8B403D00868B0DFFAD705C008F0DE
:10092000ACDF96DFFA0E086EA8DFD4EF04F0D5DF57
:10093000DBDFDDEF04F0F86AD09EC150C00B0F0979
:10094000C16E070EB46E0C0E056EFA0E066E5CDFFD
:10095000052EFBD77DDF020E056EFA0E066E54DF04
:10096000052EFBD786D7040E056EFA0E066E4CDFF9
:10097000052EFBD76DDF020E056EFA0E066E44DF04
:10098000052EFBD7090E066EC40E056E8AD760DFF2
:10099000020E056EFA0E066E37DF052EFBD7090E26
:1009A000066EC40E056EA7D753DF020E056EFA0E53
:1009B000066E2ADF052EFBD7BAD7040E056EFA0E97
:0C09C000066E22DF052EFBD7C5D7030012
:020000040030CA
:0E000000240E3F1E008181000FC00FA00F4094
:00000001FF
;PIC18F4550
;CRC=3647  CREATED="18-jun.-19 21:04"
