:040800003DEF04F0D4
:08080800EA6A060EE96EEF50EA
:100810000EE00F0E016E006A002EFED7012EFBD7F0
:100820008F0E006E002EFED70000EF2EF2D74CEF99
:1008300004F0080E016E00008A92939200000536C3
:100840008A90D8B09380D8A09390938281A2FED74B
:10085000012EF1D700008A9293920000938000004D
:100860000000938281A2FED7016A000081B001805E
:100870008A9293928A9093901200F86AD09EC15007
:10088000C00B0F09C16E070EB46E929A898A0C0EC6
:10089000056EFA0E066EB8D7052EFBD7929A899A86
:1008A0009380110E006E002EFED79382110E006E03
:1008B000002EFED78A909390110E006E002EFED768
:1008C0008A929392C70E006E002EFED700D0E00EE3
:1008D000056EAFDFC70E006E002EFED700D0056A92
:1008E000A8DFC70E006E002EFED700D0A00E056E4A
:1008F000A0DFC70E006E002EFED700D09390000040
:10090000938281A2FED7110E006E002EFED700D07A
:1009100000009380110E006E002EFED7C70E006EF1
:10092000002EFED700D09380110E006E002EFED751
:100930009382110E006E002EFED78A909390110EB6
:10094000006E002EFED78A929392C70E006E002E84
:10095000FED700D0E00E056E6CDFC70E006E002ED5
:10096000FED700D0056A65DFC70E006E002EFED7E9
:1009700000D0AA0E056E5DDFC70E006E002EFED7FA
:1009800000D093900000938281A2FED7110E006EDA
:10099000002EFED700D000009380110E006E002EB6
:1009A000FED7C70E006E002EFED700D09380110E2A
:1009B000006E002EFED79382110E006E002EFED721
:1009C0008A909390110E006E002EFED78A92939219
:1009D000C70E006E002EFED700D0E00E056E29DF98
:1009E000C70E006E002EFED700D0056A22DFC70EAC
:1009F000006E002EFED700D0A50E056E1ADFC70EC2
:100A0000006E002EFED700D093900000938281A24A
:100A1000FED7110E006E002EFED700D0000093808E
:100A2000110E006E002EFED7C70E006E002EFED7F0
:100A300000D09380110E006E002EFED79382110E0F
:100A4000006E002EFED78A909390110E006E002E3D
:100A5000FED78A929392C70E006E002EFED700D06A
:100A6000E00E056EE6DEC70E006E002EFED700D04B
:100A7000056ADFDEC70E006E002EFED700D0E40E42
:100A8000056ED7DEC70E006E002EFED700D0939005
:100A90000000938281A2FED7110E006E002EFED7B9
:100AA00000D000009380110E006E002EFED7929AA7
:060AB000898AFFD7030054
:020000040030CA
:0E000000240E3F1E008181000FC00FA00F4094
:00000001FF
;PIC18F4550
;CRC=40F8  CREATED="14-jun.-19 19:11"
